:020000040800F2
:100000009807002001010008AB1B0008F519000843
:10001000A91B000897070008A91F0008000000009E
:10002000000000000000000000000000AF1B0008FE
:100030009907000800000000AD1B0008B11B000874
:100040001B0100081B0100081B0100081B01000820
:100050001B0100081B0100081B0100081B01000810
:100060001B0100081B0100081B0100081B01000800
:100070001B0100081B0100081B0100081B010008F0
:100080001B0100081B0100081B0100081B010008E0
:100090001B0100081B0100081B0100081B010008D0
:1000A0001B0100081B0100081B0100081B010008C0
:1000B000151C0008211C00081B0100081B0100087A
:1000C0001B0100081B0100081B0100081B010008A0
:1000D0001B010008911F00089D1F00081B0100085C
:1000E0001B0100081B0100081B010008DFF80CD0F1
:1000F00000F032FB00480047892F000898070020D5
:100100000648804706480047FEE7FEE7FEE7FEE7B1
:10011000FEE7FEE7FEE7FEE7FEE7FEE7131C00084A
:10012000ED000008202A04DB203A21FA02F0002129
:10013000704721FA02F3D040C2F1200291400843F7
:100140001946704740EA01039B0703D009E008C93C
:10015000121F08C0042AFAD203E011F8013B00F88C
:10016000013B521EF9D27047D2B201E000F8012BD8
:10017000491EFBD270470022F6E710B513460A4627
:1001800004461946FFF7F0FF204610BD2DE9FE4F4B
:10019000804681EA0300C00F0C46009021F0004128
:1001A00023F00045B8EB0200A94105D240462146A4
:1001B00090461C460B46024623F00040104347D0B1
:1001C000270DC7F30A00C3F30A510290401A0190A9
:1001D00040286BDAC3F3130040F4801B009892466A
:1001E00020B10023D2EB030A63EB0B0B01985946B5
:1001F000C0F14002504600F0DFF906460D46504679
:100200005946019A00F0E7F910EB0800614100241B
:1002100087EA115284EAE7731A4340D0009A62B326
:10022000019A012A4FEA075215DC001B61EB02011B
:100230004FF0004202EA0752CDE90042001C41F5AE
:10024000801132462B4600F0E7F903B0BDE8F08F8D
:1002500040462146F9E7001B61EB0201001C41F515
:10026000801300185B412018A2F5001747EB03012B
:1002700040EAD570B6196D4111E06D084FEA3606B7
:1002800045EAC0754FEA0752001B61EB0201001CF2
:1002900041F5801149084FEA3000001951413246BA
:1002A0002B4603B0BDE8F04F00F0A7B9009801223B
:1002B00040000023D0EB020263EBE073009821467C
:1002C0004FEAE074B8EB000061EB0401E9E783F06A
:1002D00000435BE781F0004158E72DE9FE4F81EADA
:1002E000030404F0004421F0004100944FF0000B9F
:1002F00023F0004350EA01045ED052EA03045BD0CD
:10030000C3F30A54C1F30A552C44A4F2F334019404
:10031000A0FB0254C1F3130141F48011C3F3130392
:1003200043F4801301FB024400FB034E840A970A46
:1003300044EA815447EA8357A4FB076802958D0A73
:1003400005FB07854FEA932C04FB0C542705029DFF
:100350004FEA065847EA1637B5EB08056EEB070C6F
:10036000870E920E47EA811742EA8312A7FB020129
:10037000B6EB0B0164EB00042B0D43EA0C335E1863
:1003800044EB1C50DA465146E7FB0201C5F3130467
:100390004FEA0B3343EA14534FEA0432019C43EA19
:1003A0000603A4F10C040294009CCDE900B400F013
:1003B00033F903B0BDE8F08F00200146F9E72DE9DD
:1003C000F04D81EA030404F0004B21F0004514468F
:1003D0004FF0000A23F0004150EA050220D054EA11
:1003E00001021DD0C5F30A570246C5F31303C1F33A
:1003F0001300C1F30A5640F4801543F48013A7EBB1
:100400000608101BD64608F2FD3873EB050002D330
:1004100008F1010801E092185B41B8F1000F03DA1E
:1004200000200146BDE8F08D00204FF48011064603
:1004300084460EE0171B73EB050705D3121B63EB15
:10044000050306434CEA010C49084FEA30009218B4
:100450005B4150EA0107EDD152EA030012D082EA73
:10046000040083EA0501084305D0101BAB4106D206
:100470000122002306E000224FF0004302E06FF06B
:10048000010253101AEB06004CEB085110EB0A0066
:1004900041EB0B01BDE8F04D00F0AFB870B521F0B5
:1004A000004303430CD0C1F30A550024D5EB0405E7
:1004B00064EB0403D617AD1AB34102DB00200146FA
:1004C00070BD201841EB025170BD0EB5C10F80EA1E
:1004D000E0700844CA07002140F233438DE80E0063
:1004E0000A460B4600F098F803B000BD70B5C1F3A2
:1004F0000A5201F000450024C1F3130140F2FF331A
:1005000041F480119A4201DA002070BD40F2334379
:100510009A42A2F2334203DC5242FFF703FE00E0AC
:1005200090402C43F1D0404270BD000030B5041E15
:1005300071F1000404DB4FF00044404264EB010120
:10054000141E73F1000405DB1C464FF000435242B9
:1005500063EB04038B4208BF824230BD30B5041EFA
:1005600071F1000404DB4FF00044404264EB0101F0
:10057000141E73F1000405DB1C464FF00043524289
:1005800063EB0403994208BF904230BD30B50B467F
:10059000014600202022012409E021FA02F59D42B3
:1005A00005D303FA02F5491B04FA02F52844151E87
:1005B000A2F10102F1DC30BD202A04DB203A00FA6E
:1005C00002F1002070479140C2F1200320FA03F3AA
:1005D000194390407047202A06DBCB17203A41FA96
:1005E00002F043EAE07306E041FA02F3D040C2F1C0
:1005F0002002914008431946704710B5141E73F14C
:10060000000408DA401C41F1000192185B411A43D2
:1006100001D120F0010010BD2DE9F04D92469B461E
:1006200011B1B1FA81F202E0B0FA80F220329046C4
:10063000FFF7C2FF04460F4640EA0A0041EA0B01F9
:1006400053465A46084313D0114653EA010019D0C5
:10065000C8F140025046FFF765FD05460E4650467C
:1006600059464246FFF7A8FF084305D0012004E0A1
:1006700020463946BDE8F08D0020054346EAE07685
:100680002C4337430A986305E40AA0EB08000022D4
:10069000FD0A44EA47540A3002D500200146E9E742
:1006A000010510196941DDE9084500196941BDE8F6
:1006B000F04DA2E72DE9F04D00231A461B1A8A419E
:1006C00003DB00200146BDE8F08DC1F30A52C1F3FF
:1006D000130141F480154FF0000BD10702D100182F
:1006E0006D41521E0027044640F2FF11384601EBCF
:1006F000620A3E468046024600204FF48011FFF712
:1007000011FDC2197141BB1846EB0100B4EB030C9B
:1007100075EB000C04D3E41A65EB000517460E4692
:10072000241908F101006D4180463428E3DDF919F0
:1007300046EB0600091BA84103D24FF0FF321346D7
:1007400001E0002213461BEB070046EB0A51BDE80F
:10075000F04DFFF752BF0000064C074D06E0E06881
:1007600040F0010394E8070098471034AC42F6D3F8
:10077000FFF7C0FC80350008A03500080EB540F238
:10078000334102910021CDE900110A460B46FFF7E3
:1007900043FF03B000BDFEE7704772B6FEE710B539
:1007A00090F821100022022905D00421816380F8ED
:1007B0002020012010BD01680B6823F00E030B60A0
:1007C00001680B6823F001030B6090F84030C46BA4
:1007D000012101FA03F3636080F8211080F82020E2
:1007E000104610BD10B590F821100024022903D046
:1007F0000421816301243DE001680A6822F00E02B1
:100800000A6001680A6822F001020A601A4A016857
:10081000914201D1012121E0174A1432914201D1C4
:1008200010211BE0144A2832914201D1891515E0AC
:10083000114A3C32914201D189140FE00E4A5032E4
:10084000914202D14FF4803108E00B4A6432914268
:1008500002D14FF4801101E04FF08071064A083A4E
:100860005160012180F82110002180F82010416B97
:1008700001B18847204610BD0800024070B504460B
:1008800000F004F90546601C02D0044800780444D6
:1008900000F0FCF8401BA042FAD370BD2C000020F1
:1008A0002DE9F84FDFF8B891002409F1040A0AF1A4
:1008B000040B23460F270BF1040EC9E00125A540C8
:1008C0002A40AA427DD1674ED1F804C0ACEB06089D
:1008D000B44532D014DCBCF1030F3AD009DCBCF1D2
:1008E000000F2AD0BCF1010F1CD0BCF1020F31D196
:1008F0001DE0BCF1110F17D0BCF1120F2AD119E085
:10090000B8F5881F19D006DCB8F5803F15D0B8F5CA
:10091000801F1FD111E0B8F5001F0ED0B8F5041FDD
:1009200018D10AE0CB6815E0CB681B1D12E0CB683C
:1009300008330FE0CB680C330CE08B682BB1012B34
:100940004FF0080303D0456104E0042302E0056191
:1009500000E00023FF2A01D8064601E000F104066A
:100960004FEA840501D9A5F12005D6F8008007FAE1
:1009700005FC28EA0C0803FA05F548EA0508C6F85C
:1009800000804D68ED0062D5374DAE6946F0010636
:10099000AE61AD6924F0030605F001050095334D05
:1009A00006EB050CDCF80850A607360F07FA06F828
:1009B00025EA0805DFF8B880404503D14FF000086C
:1009C00017E044E0DFF8AC80404502D14FF0010869
:1009D0000FE0DFF8A480404502D14FF0020808E0A4
:1009E000DFF89880404502D14FF0030801E04FF056
:1009F000040808FA06F848EA0508CCF808804D68AB
:100A0000D9F80060ED034D4601D5164300E096434A
:100A10002E604D68DAF80060AD03554601D51643E7
:100A200000E096432E604D68DBF80060ED025D4605
:100A300001D5164300E096432E604D68DEF8006055
:100A4000AD02754601D5164300E096432E60641C46
:100A50000D682A46E5407FF431AFBDE8F88F00000D
:100A6000000401400000111000100240000001408D
:100A700000080140000C014000100140001401403A
:100A80000AB1016170470904FBE700000148806872
:100A9000704700002C000020024881680278114451
:100AA000816070472C000020074810B5016841F0B4
:100AB00010010160032000F075F80F2000F006F827
:100AC00000F024F8002010BD0020024070B50D4D4C
:100AD00004464FF47A712878B1FBF0F00A490968AE
:100AE000B1FBF0F000F0ECFA48B9102C07D200226C
:100AF0002146501E00F036F800206C6070BD0120C9
:100B000070BD00002C000020380000200C4808B503
:100B1000816941F001018161816901F00101009168
:100B2000C16941F08051C161C06900F080500090FE
:100B30000448416821F0E06141F00071416008BD66
:100B40000010024000000140002809DB00F01F02F5
:100B5000012191404009800000F1E020C0F800111F
:100B600070470000F0B40E4B1B680C46C3F3022321
:100B7000C3F10705042D00D90425191D072901D249
:100B8000002300E0DB1E012606FA05F1491E214084
:100B900099409E40761E16403143F0BC01F02ABABF
:100BA0000CED00E0064900F0070208684FF6FF036D
:100BB000184040EA0220034A1043086070470000D2
:100BC0000CED00E00000FA052DE9F0470F460500A6
:100BD00061D0434E306800F00700B84209D2306857
:100BE00020F0070038433060306800F00700B8425A
:100BF00051D128683B4C810712D5400703D5606866
:100C000040F4E06060602878000703D5606840F435
:100C1000605060606068A96820F0F0000843606080
:100C20002878C00728D06868012810D021680228D9
:100C300010D0890700292EDA616821F003010143F1
:100C40006160FFF723FF804641F288390DE021689B
:100C50008903EFE78901EDE7FFF718FFA0EB080133
:100C6000494502D90320BDE8F0876068696800F053
:100C70000C00B0EB810FEFD1306800F00700B842F4
:100C80000BD9306820F0070038433060306800F03E
:100C90000700B84201D00120E5E72878400705D5D4
:100CA0006068E96820F4E060084360602878000725
:100CB00006D56068296920F4605040EAC100606090
:100CC00000F038F86168084AC1F30311515CC8406C
:100CD0000649086006480068FFF7F8FE0020C2E7F2
:100CE0000020024000100240A83300083800002015
:100CF000300000200448054900684968044AC1F3EF
:100D00000221515CC84070473800002000100240AA
:100D1000B83300080448054900684968044AC1F32B
:100D2000C221515CC84070473800002000100240CA
:100D3000B833000812A185B00FC98DE80F0014A0C8
:100D4000144A006804905168134801F00C03042B06
:100D500010D0082B0ED1C1F38343C9031DF8030043
:100D60000AD5516804AAC1F34041515C0A4A504374
:100D7000B0FBF1F005B0704708494843FAE70000BE
:100D800002030405060708090A0B0C0D0E0F1010CC
:100D9000010200000010024000127A0000093D002C
:100DA0002DE9F84F040070D02078C04DC00749D01D
:100DB0006868C0F38100012807D06868C0F381002B
:100DC000022809D16868C00306D52868800339D590
:100DD00060680028E7D035E06068B0F5803F0BD050
:100DE00010B1B0F5A02F11D0286820F48030286011
:100DF000286820F4802002E0286840F480302860D1
:100E0000606890B1FFF742FE06460AE0286840F4A9
:100E100080202860F0E700BFFFF738FE801B6428C1
:100E200073D828688003F7D50CE0FFF72FFE06463D
:100E300005E000BFFFF72AFE801B6428F0D8286871
:100E40008003F7D420789A4E80074FF001094FF0C5
:100E5000000839D5686810F00C0F07D06868C0F337
:100E60008100022809D16868C00306D42868800779
:100E700014D52069012808D110E02069B0B1C6F866
:100E80000090FFF703FE074605E00AE1FFF7FEFDCD
:100E9000C01B0228C4D828688007F7D52868616974
:100EA00020F0F80040EAC10028600DE0C6F800809C
:100EB000FFF7ECFD074604E0FFF7E8FDC01B022842
:100EC00023D828688007F7D4207800072CD57948E4
:100ED000A169D9B1C0F80090FFF7D8FD074604E03A
:100EE000FFF7D4FDC01B02280FD8686A8007F7D52A
:100EF00071484FF4FA510068B0FBF1F0009000BF68
:100F00000098411E0091FAD20EE080E0C0F8008007
:100F1000FFF7BCFD074604E0FFF7B8FDC01B022841
:100F200075D8686A8007F7D42078400760D5E869EB
:100F30000027C00008D4E86940F08050E861E86903
:100F4000012700F0805000905C480168C90513D467
:100F50000168834641F480710160FFF797FD824686
:100F600006E000BFFFF792FDA0EB0A0064284ED810
:100F7000DBF80000C005F5D5E06801280AD008B10B
:100F8000052813D0286A20F001002862286A20F082
:100F9000040002E0286A40F001002862E06841F2A3
:100FA000883B98B1FFF772FD82460BE0286A40F05B
:100FB00004002862EEE700BFFFF768FDA0EB0A011E
:100FC00059455AD8286A8007F6D50CE0FFF75EFD30
:100FD000824605E0FFF75AFDA0EB0A0159454CD8BF
:100FE000286A8007F6D41FB1E86920F08050E861D4
:100FF000E06988B36968C1F38101022944D00228FD
:10100000C6F8608004D0FFF741FD044638E034E0C4
:10101000FFF73CFD074604E0FFF738FDC01B022840
:101020002BD828688001F7D4206AB0F5803F05D11D
:101030006868A16820F4003008436860D4E90801BA
:101040000843696821F4741108436860C6F8609029
:10105000FFF71CFD044606E025E000BFFFF716FD84
:10106000001B022809D828688001F7D51BE000BFC3
:10107000FFF70CFD001B022802D90320BDE8F88F02
:1010800028688001F4D40EE00128F7D06868226A4D
:1010900000F48031914204D1616A00F470108842FA
:1010A00001D00120EAE70020E8E70000001002403C
:1010B000000042428004424238000020007000409C
:1010C00010B5401EB0F1807F01D3012010BD4FF05C
:1010D000E02460610F21601700F08CFF0020A06108
:1010E00007202061002010BD7047704770B590F850
:1010F0003C20012A26D0012480F83C40022280F8BE
:101100003D2003685A689D6822F070060A683243E1
:101110005A600D4B02689A4208D0B2F1804F05D058
:101120000A4B9A4202D00A4B9A4204D1496825F0F0
:1011300080031943916080F83D40002180F83C1005
:10114000084670BD022070BD002C01400004004024
:101150000008004010B5040003D094F83D0010B121
:1011600007E0012010BD002084F83C00204600F07C
:101170001FF8022084F83D00211D206800F078FD52
:10118000012084F8460084F83E0084F83F0084F88B
:10119000400084F8410084F8420084F8430084F859
:1011A000440084F8450084F83D00002010BD000094
:1011B00008B501681448B1F1804F14D0134A914228
:1011C00020D1C16941F00201C161C069002200F073
:1011D0000200009001211D20FFF7C4FC1D20BDE886
:1011E0000840FFF7B1BCC16941F00101C161C069AC
:1011F000002200F00100009001211C20FFF7B2FC4A
:101200001C20ECE708BD0000001002400004004074
:1012100090F83D10012901D001207047022180F88B
:101220003D100168CA6842F00102CA6000680B49BB
:10123000884208D0B0F1804F05D00949884202D0D9
:101240000849884204D1816801F00701062903D0CA
:10125000016841F00101016000207047002C01404D
:10126000000400400008004070B5044690F83C00BF
:10127000012817D0012584F83C50022084F83D0055
:101280002068826822F0770222F47F428260086838
:10129000502830D00DDC20284DD005DC98B3102824
:1012A0003BD148E0022070BD302844D0402834D1E2
:1012B00039E0602828D0702806D0B0F5805F2CD0A7
:1012C000B0F5005F29D10AE0CB68D1E9012120689F
:1012D00000F004FD2068816841F0770109E0CB68E7
:1012E000D1E90121206800F0F9FC2068816841F40F
:1012F0008041816011E0CA684968206800F000FD03
:101300005021206807E016E0CA684968206800F0AC
:1013100008FD6021206800F0EBFC84F83D500020BF
:1013200084F83C0070BDCA684968206800F0E8FC99
:1013300040212068EFE7226801461046EBE770473E
:1013400070B50446006801694FF00005C94389077C
:1013500015D4C168C943890711D4E91E0161012070
:101360002077206880698007204602D0FFF7E7FFDA
:1013700004E000F098F8204600F096F82577206801
:101380000169C943490717D4C168C943490713D440
:101390006FF004010161022020772068806910F459
:1013A000407F204602D0FFF7CAFF04E000F07BF840
:1013B000204600F079F8257720680169C9430907BC
:1013C00016D4C168C943090712D46FF0080101613E
:1013D000042020772068C0698007204602D0FFF7EC
:1013E000AEFF04E000F05FF8204600F05DF82577DE
:1013F00020680169C943C90617D4C168C943C90631
:1014000013D46FF010010161082020772068C069B3
:1014100010F4407F204602D0FFF791FF04E000F077
:1014200042F8204600F040F8257720680169C9435A
:10143000C90708D1C168C943C90704D1891E016120
:10144000204600F032F820680169C943090609D432
:10145000C168C943090605D46FF0800101612046C7
:10146000FFF742FE20680169C943490609D4C168F3
:10147000C943490605D46FF040010161204600F0E0
:1014800015F820680169C94389060BD4C168C943AE
:10149000890607D46FF0200101612046BDE8704045
:1014A000FFF723BE70BD70477047704770477047A5
:1014B000704710F83D1F407808437047F8B5026840
:1014C00004461068D168536910F00F0F4FF0000503
:1014D00054D003F0010601F4907737435FD0C20780
:1014E00005D0CA0503D5226C42F0010222644207EE
:1014F00005D5DA0703D0226C42F00202226482078B
:1015000005D5DA0703D0226C42F0040222640207F8
:1015100007D501F02002324303D0226C42F00802CA
:101520002264226C002A35D0800604D5880602D5B4
:10153000204600F028FC20684069216CC0F3801030
:1015400001F008010143204625D000F004FC20688A
:10155000416949061BD5416921F040014161A06BF9
:10156000A8B158494163A06BFFF73CF9002811D09E
:10157000A06B416B01B0BDE8F040084783060ED573
:101580008B060CD52046BDE8F84000F0FCBB204699
:10159000FFF78EFFF8BDFFF78BFF2564F8BD266BC4
:1015A0002023012E52D1C60650D5CE064ED5106846
:1015B00050680090506940062AD5A16B08684068C1
:1015C0000004000CEAD0A68D8642E7D9E085886940
:1015D000202818D0D06820F48070D060206841693D
:1015E00021F0010141612068416921F04001416120
:1015F00084F83E3025632068C16821F01001C16085
:10160000A06BFFF7CCF8A08DE18D401A81B219E0F4
:10161000A08DE18D401A81B2E08D0028BED0002956
:10162000BCD0D06820F49070D0602068426922F06D
:101630000102426184F83E3025632068C26822F0CE
:101640001002C2602046FFF732FFF8BD05062BD519
:101650000D0629D594F83D002128F6D1A068B0F5F3
:10166000805F01D12069B0B1206A411C21622168EC
:1016700000784860E08C401E0004000CE084E4D157
:101680002068C16821F08001C1602068C16841F014
:101690004001C160F8BD206A0088C0F308005060B6
:1016A000206A801C2062E5E74006F3D54806F1D5A4
:1016B000D168204621F04001D16084F83D3000F02F
:1016C00098F9F8BD471D000870B5040004D094F8DF
:1016D0003D00002510B106E0012070BD84F83C50AB
:1016E000204600F023F8242084F83D002068C168DB
:1016F00021F40051C160204600F0A0FB2068016980
:1017000021F4904101612068416921F02A01416181
:101710002068C16841F40051C1602564202084F82C
:101720003D0084F83E00002070BD000070B586B01A
:10173000002400940194029403942E4E03682E49D1
:10174000022003222D4DB34226D18B6943F48043FE
:101750008B618B6903F4804304938B6943F004032A
:101760008B618969039201F0040104910102CDE9C2
:10177000001069462846FFF793F82815CDE90004C4
:10178000694628460294FFF78BF8002202212520A3
:10179000FFF7E8F9252028E0194EB34227D1CB699D
:1017A00043F40033CB61CB6903F4003304938B69BA
:1017B00043F004038B618969039201F004010491F1
:1017C0000421CDE9001069462846FFF769F8082092
:1017D000CDE90004694628460294FFF761F800222B
:1017E00011462620FFF7BEF92620FFF7ADF906B017
:1017F00070BD0000003801400010024000080140A8
:101800000044004090F83E30202B0ED159B152B127
:1018100090F83C30012B08D0012380F83C300023A5
:10182000036300F067BB012070470220704700008F
:1018300010B5144C14492078A2780A54401CC0B248
:101840002070084410F8010C0D2811D1084601F051
:10185000DFFB60600D48FFF72CFE2128FAD00C4911
:101860000020086020704FF480710748FEF783FC69
:10187000044906480122891CBDE810404438FFF79E
:10188000C1BF000000000020000100204403002030
:101890002400002070B51F481F4C03686BB1032063
:1018A000E060E0781D4AE02809D0E12807D0E2286E
:1018B00005D0A168012905D009E00220F0E71070E9
:1018C0000121A16018B161785054491C61706078A1
:1018D000E168884215D1012B0BD19078517800EB4B
:1018E000012110780E4A02EB8000A0F58050C0F86C
:1018F000801C002565704FF480710848FEF73BFCA2
:10190000A5600549BDE8704005480122C91C44385E
:10191000FFF778BF24000020000000200002002014
:10192000880300200549884201D1FFF781BF0349A0
:101930004431884201D1FFF7ADBF7047000300205A
:101940002DE9F843044690F83D001F4616460D4623
:1019500020284CD1C5B1BEB194F83C00012846D036
:10196000012084F83C004FF00008C4F8408021209A
:1019700084F83D00FFF78AF8A6848146E684A068D3
:10198000B0F5805F03D004E00120BDE8F883206952
:1019900028B12E465FF0000584F83C800EE000265A
:1019A000FAE78021204600F0C0FAA0B9AEB116F8DF
:1019B000010B21684860E08C401EE084E08C4B46BF
:1019C0004FF0000200970028EBD14FF04001204675
:1019D00000F0ABFA30B10320D7E735F8020BC0F3C3
:1019E0000800E6E7202084F83D000020CDE7022033
:1019F000CBE77047FEE7000070B586B000241848BA
:101A00000094019402940394816941F01001816172
:101A1000816901F010010491816941F02001816127
:101A2000816901F020010491816941F00401816123
:101A300080690C4E00F004004FF400550490002221
:101A400029463046FFF71CF801200095CDE9010436
:101A50000220039069463046FEF722FF06B070BDB3
:101A6000001002400010014010B586B00024174855
:101A7000009401940294039404944FF080410594DF
:101A8000016040F2E731C0E9011441F61F41C0E9AD
:101A900003148461FFF75EFB08B1FEF77EFE4FF48E
:101AA0008050009069460948FFF7DEFB08B1FEF759
:101AB00074FE049404A905480594FFF717FB002859
:101AC00001D0FEF76AFE06B010BD00004400002001
:101AD00010B586B000241748009401940294039432
:101AE00004941349059401606321C0E9011441F68F
:101AF0001F41C0E903148461FFF72CFB08B1FEF716
:101B00004CFE4FF48050009069460A48FFF7ACFB4A
:101B100008B1FEF742FE049404A906480594FFF7B5
:101B2000E5FA002801D0FEF738FE06B010BD00002F
:101B3000000400408C0000200C4810B50A490160E8
:101B40004FF4E1314160002181600C22C160C0E9A5
:101B500004128161C161FFF7B7FD002803D0BDE821
:101B60001040FEF71ABE10BD0038014000030020EF
:101B70000C4810B50A4901604FF4E1314160002181
:101B800081600C22C160C0E904128161C161FFF76C
:101B90009BFD002803D0BDE81040FEF7FEBD10BD40
:101BA0000044004044030020FEE7FEE77047704712
:101BB000FEF772BF30B58FB028216846FEF7DBFA1A
:101BC00014210AA8FEF7D7FA01210804CDE9001074
:101BD0000024029402250491CDE907504FF4E0104F
:101BE00009906846FFF7DCF808B172B6FEE70F20EF
:101BF000CDE90A054FF48060CDE90C4002210AA826
:101C00000E94FEF7E1FF002801D072B6FEE70FB098
:101C100030BD70470148FFF793BB0000440000202F
:101C200070B51048FFF78CFB0F4930200C46487008
:101C3000207A0125E03008704FF6FF7302220B482E
:101C40006560FFF77DFE0948FFF733FC2128FAD0D5
:101C50006560A068401CA060032801DB0020A06034
:101C600070BD00008C0000202000002044030020F4
:101C7000F0B50268164B174C174D4FF0804798424D
:101C800005D0B84203D0A04201D0A84203D122F02F
:101C900070064A683243984205D0B84203D0A04249
:101CA00001D0A84203D122F44074CA6822434C698F
:101CB00022F08002224302608A68C2620A6882625D
:101CC000984201D10969016301214161F0BD000021
:101CD000002C0140000400400008004010B584685A
:101CE00042EA032224F47F440A432243826010BD67
:101CF000826822F070020A4342F007018160704757
:101D000010B5036A046A24F001040462846924F0B3
:101D1000F00444EA021423F00A020A4384610262D6
:101D200010BD10B5036A23F0100303628369046ACF
:101D300023F4704343EA023224F0A00343EA011182
:101D40008261016210BD10B5406A0021C185C18465
:101D5000FFF7AEFB10BD0168CA6822F49072CA603A
:101D600001684A6922F001024A61016B012904D12C
:101D70000168CA6822F01002CA60202180F83E1073
:101D800000210163704708B590F83E10222901D068
:101D9000022008BD82684FF480539A4201D1016944
:101DA00021B1816A9A421BD04AB10AE00268816A75
:101DB0005268C2F308020A80816A891C08E002693D
:101DC00072B10268526802F07F020A70816A491C8F
:101DD0008162C18D491E0904090CC18503D019E037
:101DE00002685268F1E70168CA6822F02002CA60FE
:101DF0000168CA6822F48072CA6001684A6922F0E8
:101E000001024A61202180F83E10016B012903D0B4
:101E1000FFF788FD002008BD002101630168CA6842
:101E200022F01002CA6001680A68D20602D50A6868
:101E300049680091818DFFF73AFBEBE770B50446E6
:101E400000680169E26821F4405111430161216990
:101E5000A0680843616908432168CA6841F20C63BD
:101E60009A430243CA6020684169A26921F4407123
:101E7000114341611E492068884202D1FEF74AFFA2
:101E800001E0FEF737FF00EBC00101EB00126068D4
:101E900064218000B2FBF0F3B3FBF1F36FF018069E
:101EA0007343B2FBF0F5B2FBF0F605EB830532238A
:101EB00003EB0515B5FBF1F5B6FBF1F605F0F00502
:101EC00005EB0615B2FBF0F6B2FBF0F0B0FBF1F05B
:101ED0006FF01802504306EB800003EB0010B0FBDC
:101EE000F1F0216800F00F002844886070BD000008
:101EF0000038014081628285C2850021016422226E
:101F000080F83E2080F83C100168CA6842F4807274
:101F1000CA6001684A6942F001024A610068C1680A
:101F200041F02001C160002070472DE9F041984642
:101F300017460E460446069D1DE0681C1BD02DB1B9
:101F4000FEF7A4FDA0EB0800A84214D92068C168E0
:101F500021F4D071C1602068416921F00101416123
:101F6000202084F83D0084F83E00002084F83C00E6
:101F70000320BDE8F0812068006836EA000004D044
:101F80000020B842D9D00020F3E70120F9E7000093
:101F90000148FFF793BA0000000300200148FFF753
:101FA0008DBA000044030020FEE700000FB4054B8B
:101FB00010B503A9044A029800F064FB10BC5DF858
:101FC00014FB0000552C00083C000020490050EA9A
:101FD000C12018BF04204A0D18BF40F0010040F294
:101FE000FF72B2EB515F08BF40F00200012808BF4A
:101FF000052070470907090E002804DB00F1E020E6
:1020000080F80014704700F00F0000F1E02080F825
:10201000141D70472DE9F74F144694B00021C4E910
:1020200002111599079121F00045C9498D4206DC3E
:102030001599C4E9000117B00020BDE8F08FC5492B
:10204000DFF814A3A9423CDD0799C44E0029C44F10
:10205000C44A1599534619DDFEF739F9554506D09E
:10206000C14AC24BFEF733F9C4E900010AE04FF060
:10207000D352BE4BFEF72BF932463B46FEF727F90B
:10208000C4E9000117B00120BDE8F08FFEF77EF82B
:10209000554506D0B44AB54BFEF778F8C4E90001BF
:1020A0000AE04FF0D352B14BFEF770F832463B4690
:1020B000FEF76CF8C4E9000117B04FF0FF30BDE83F
:1020C000F08FAB49A942159978DB21F00041834696
:1020D0008846A84AA84BFEF700F90022A74BFEF756
:1020E00055F8FEF703FA0990FEF7EFF906460F469A
:1020F0009C4A5346FEF7F1F843465A46FEF7EAF883
:1021000080468A46984A994B30463946FEF7E5F8AC
:102110002A0D01250B9242465346FEF7DBF8032DAC
:10212000C4E9000139D00B98C1F30A51401A05EBFC
:1021300045111139814230DA9148C346784400EBA9
:102140000510CDF80CA00C90D0E90023304639469C
:10215000FEF7C3F802460B460491069058460399D1
:10216000FEF7B5F880468A4602460B465846039964
:10217000FEF7ADF8049B069AFEF7A9F883460C9883
:1021800003913946D0E902233046FEF7A6F85A46B5
:10219000039BFEF79CF86D1CBDE707980028A2BFC3
:1021A000099817B0BDE8F08F616881F00041616067
:1021B000099817B04042BDE8F08FFFE784461598B4
:1021C000C1F31301C0F30A50A0F2F5304FEA6018D2
:1021D00000F01F06C6F12000139000200690079023
:1021E00041F4801E05206D4676B1664A08EB000179
:1021F0007A4452F8213002EB8101B3404A681399C6
:1022000022FA01F1194305E05F4908EB0002794425
:1022100051F82210A1FB0E27A1FB0C131A449A427D
:1022200034BF0123002303EB070A05EB8003D3E946
:1022300001B70F448F4234BF0121002193448B44E6
:1022400011B1934502D903E0934501D2012100E089
:102250000021C3E901B7514445F82010011EA0F147
:102260000100C1DC0298059F00F10050800F129020
:102270000298DDE903568000FEF727F983462846D9
:102280000D91FEF77BFA6FF01D02FEF707F9CDE91D
:102290000E013046FEF772FA6FF03D02FEF7FEF8CF
:1022A00080468A463846FEF769FA6FF05D02FEF70F
:1022B000F5F80746424653461191FDF767FFDDE901
:1022C0000E23FDF763FF5A460D9BFDF75FFF0025C8
:1022D0000E465A4628460D9BFDF7F9FFDDE90E2311
:1022E000FDF7F5FF42465346FDF7F1FF3A46119BD5
:1022F000FDF7F0FFDFF898A0244A5346FDF7EDFF05
:1023000007468846234A244B31462846FDF7E5FF19
:102310003A464346FDF73AFF074688464FF0A84243
:10232000534631462846FDF7D8FF3A464346FDF767
:102330002DFF159A12F0004F04D0129A81F000413F
:1023400052421292C4E90001129817B0BDE8F08F12
:10235000FB21E93F7CD90240FB21F93F7370032E3A
:102360008A19A33B000040543163621A61B4D03D26
:10237000FB21394183C8C96D305FE43F0000E03F75
:1023800050130000CC120000AE120000182D44546F
:10239000FB21F93D3326A611460B113C2DE9FF4DDB
:1023A00021F0004807460C46B8F1795F08DAFEF7DD
:1023B0009DF8002801BF0020324904B0BDE8F08D2F
:1023C0003A46234610461946FDF787FF0546024662
:1023D0002D480E460B460621784400F05DF82A464B
:1023E0003346FDF77AFFDDE9022382468B46384605
:1023F0002146FDF772FF04460F4652465B462846CB
:102400003146FDF76AFF22463B46FDF760FF07466F
:102410008A464FF0FF3228463146FEF73FF81B4A06
:1024200090450ADA3A465346FDF751FF04B00022C0
:10243000BDE8F04D134BFDF74DBF154A4245A8BF0F
:10244000A8F500154FF00004B8BF124D22462B46E8
:10245000FDF73DFF0646884622462B4600200949E7
:10246000FDF735FF04460D463A4653463046414691
:10247000FDF72DFF04B022462B46BDE8F04DFDF7D9
:1024800029BF00000000F03F7C1000003333D33F31
:102490000000E93F0000D23F2DE9F0414F1E00EB64
:1024A000C7010446D1E9000115461E4637F0060271
:1024B0000DD02A463346FDF710FF7F1E04EBC703FD
:1024C000D3E90023FDF762FE37F00602F1D1022FB7
:1024D00025D0042F13D0062F18BFBDE8F0812A465F
:1024E0003346FDF7FAFED4E90A23FDF74FFE2A46EC
:1024F0003346FDF7F2FED4E90823FDF747FE2A46EE
:102500003346FDF7EAFED4E90623FDF73FFE2A46EF
:102510003346FDF7E2FED4E90423FDF737FE2A46F1
:102520003346FDF7DAFED4E90223FDF72FFE2A46F3
:102530003346FDF7D2FED4E90023BDE8F041FDF7B4
:1025400025BE00002DE9FF4D054621F0004084B076
:102550000C46B0F1795F0BDA2846FFF737FD042807
:1025600008BF00F071F8284608B02146BDE8F08D9C
:102570002A460B461046FDF7B0FE06460F462A4691
:102580002346FDF7AAFE804626488A4632463B4649
:1025900005217844FFF780FF83461098029160B3CD
:1025A000214A224B40465146FDF797FECDE90001F6
:1025B0005A4640465146029BFDF78FFE82468846AA
:1025C000DDE906014FF0FF32FDF768FF5246434652
:1025D000FDF77DFE32463B46FDF77FFEDDE9062333
:1025E000FDF775FEDDE90023FDF771FE08B02A4610
:1025F0002346BDE8F04DFDF76DBE0B465A4630460A
:102600003946FDF76AFE084A084BFDF7BFFD424612
:102610005346FDF762FE08B02A462346BDE8F04D5A
:10262000FDF7B4BDC20F0000495555555555C5BFFE
:102630000122FDF733BFFDF7A9BD00221346104666
:102640001146FDF7BCBE0000024A00201107FDF74D
:1026500025BF000001FDFFFF02E008C8121F08C1EE
:10266000002AFAD170477047002001E001C1121F13
:10267000002AFBD170470000014908607047000044
:10268000400000202DE9FF4F89B09B4604460025FD
:1026900006E025280BD05A460B999047641C6D1C08
:1026A00020780028F5D10DB02846BDE8F08F00272E
:1026B000B8460122474900E0074314F8013F203B98
:1026C00002FA03F00842F7D120782E2819D114F825
:1026D000010F47F004072A280ED06FF02F02207850
:1026E000A0F1300109290CD808EB880102EB410167
:1026F00000EB0108641CF2E70A98641C50F8048B94
:102700000A9020780028CED0642808D0692806D006
:1027100075281ED05A460B9990476D1C58E00A99AF
:102720004FF00A0901C90A91002802DA40422D211E
:1027300002E0390504D52B218DF82010012103E09A
:10274000F90704D02021F7E78A4608AE0DE0002102
:10275000FAE70A994FF00A0901C90A91F7E74946D1
:10276000FDF714FF303106F8011D0028F7D1ADEB5D
:10277000060000F12009780701D44FF00108C84590
:1027800002DDA8EB090000E000208046002706E0FB
:1027900008A85A46C05D0B9990476D1C7F1C574591
:1027A000F6DB04E030205A460B9990476D1CB8F1D7
:1027B0000001A8F10108F5DC05E016F8010B5A4606
:1027C0000B9990476D1CB9F10001A9F10109F4DCE6
:1027D000641C65E7092801002DE9F84F04460D4601
:1027E00021F0004000917349814211DC7249884216
:1027F00001DC06D12CB120462946BDE8F84FFFF791
:1028000017BF6E48002DCCBF6D496E49BDE8F88FEB
:102810006D49814211DD6D498142D8BF4FF0FF36CD
:102820006DDD20462946FFF7D1FB042808BFFFF7DE
:102830000BFF20462946BDE8F88F6549654F25F016
:102840000045814233DD6449814219DD002632466C
:102850004FF0804320462946FDF798FC80468A4683
:10286000012220462946FDF719FE00223B46FDF7CE
:102870002EFD42465346FDF7A2FD04460D463EE0BE
:1028800001260022BA463B4620462946FDF77EFC3B
:1028900080460F460022534620462946FDF717FD85
:1028A00042463B46FDF78BFD04460D4627E04B496B
:1028B00081421BDDDFF828A1022600225346204674
:1028C0002946FDF70AFD00223B46FDF75FFC8046E6
:1028D0000F460022534620462946FDF7F8FC4246A3
:1028E0003B46FDF76CFD04460D4608E003262246F4
:1028F0002B4600203B49FDF762FD04460D4622466B
:102900002B4610461946FDF7E8FC8B4682460246E8
:102910000B46FDF7E2FC07460246334888460B4665
:1029200006217844FFF7B8FD52465B46FDF7D5FC1B
:1029300082462E488B463A46434605217844FFF7A7
:10294000ABFD3A464346FDF7C8FC02460B46002E57
:10295000504659460CDAFDF719FC22462B46FDF786
:10296000BCFC01B022462B46BDE8F04FFDF7B2BCDF
:10297000FDF70CFC22462B46FDF7AFFC1C4A7A44BF
:1029800002EBC603D3E90023FDF7A1FC22462B4648
:10299000FDF79DFC174A7A4402EBC603D3E90023F6
:1029A000FDF798FC009A002AB8BF81F00041BDE80D
:1029B000F88F0000000010440000F07F182D4454F0
:1029C000FB21F93FFB21F9BF0000DC3F0000203E66
:1029D0000000F33F0000F03F0000E63F00800340AE
:1029E0000000F83F0000F0BF020B0000C00A00002A
:1029F0005E0A0000260A00002DE9F04D9446CCF155
:102A0000000423F000464CEA0404524F46EAD47412
:102A10009A46884621F00042BC4206D8454240EA28
:102A2000050442EAD474BC4204D9BDE8F04D6246C4
:102A3000FFF701BEAAF14055A5F17F6555EA0C04E8
:102A40000BD0022404EAAA74434DDFF810E144EAF3
:102A5000D87452EA000B04D00CE0BDE8F04DFFF74B
:102A6000BBBE002C14BF012CBDE8F08D022C30D071
:102A7000032C32D056EA0C0B0AD0BE4220D1BA4207
:102A800009D126F0804622F080423346114617E0F5
:102A900000291ADB25E0DFF8C8B0FB44002C04BF96
:102AA000DBE90001BDE8F08D012C02BFDBE900018C
:102AB00081F00041BDE8F08D022C0AD0032C0CD02F
:102AC000BA4212D1B8F1000F0BDA23482549BDE80C
:102AD000F08D28462449BDE8F08D28467146BDE8B2
:102AE000F08D1D482149BDE8F08D921B12153C2A3E
:102AF000C4BF19481D490EDCBAF1000FBEBF12F168
:102B00003C0F0020014606DB6246FDF758FC21F031
:102B10000041FFF761FE002C08BFBDE8F08D012CDD
:102B200004BF81F00041BDE8F08D114A114B022C29
:102B300007D0FDF7CCFB2A46BDE8F04D0A4BFDF768
:102B4000C6BBFDF7C4FB2A46BDE8F04D064BFDF7BA
:102B5000C1BB00000000F07F182D4454FB2109C0C8
:102B6000EA090000FB21F9BFFB210940FB21F93FE5
:102B7000075C143326A6A13C00B5244B21F000428B
:102B800087B09A42DCBF0022134629DD204B9A42CF
:102B900008D140B94FF00100FFF76EFDFFF74DFD82
:102BA00007B000BD03DBFFF743FD07B000BD02AA7D
:102BB000FFF730FA10F0030104BF0DF1080C9CE898
:102BC0000F000DD0012001290ED0022914D00DF1E3
:102BD000080C00909CE80F00FFF7B4FC07B000BDA4
:102BE000FFF7DCFB07B000BD0DF1080C00909CE87E
:102BF0000F00FFF7A7FC05E00DF1080C9CE80F00A3
:102C0000FFF7CCFB07B081F0004100BDFB21E93F9D
:102C10000000F07F70B505460B4814460E4650F88C
:102C20002400FDF752FC2A463346FDF756FB074ABF
:102C3000074BFDF752FBFDF759FC03490C3951F8DE
:102C40002410084470BD000084330008721CC77152
:102C50001CC7614013B54FF6FF7301226946024855
:102C6000FEF76EFE00981CBD000300202DE9FF5FFB
:102C7000A2B0914683469A461822BD490CA8FDF79A
:102C800061FA00201F90DDE910410D460122204627
:102C9000FDF704FC4A465346FDF71FFBCDE9020150
:102CA00006460F46DDE90E0102460B46FDF715FB11
:102CB00007911E9022462B4620462946FDF70DFB24
:102CC0004A4653460191189010461946FDF705FBF8
:102CD0001991239B80465A4610461946FDF7FDFA86
:102CE0004246199BFDF752FA019B189AFDF74EFADE
:102CF000079B1E9AFDF7EBFA32463B46CDE90001F1
:102D0000FDF7E5FA06460F4600229A4B58462399EE
:102D1000FDF7E3FA22462B46FDF7DFFA0D46DDE923
:102D2000022104460B46DDE90001FDF72FFA80463B
:102D300000220191134630463946FDF7F7FB38D1A2
:102D40000199404681F0004122462B46FDF737FBB2
:102D5000884B00225B42FFF74FFE0122FDF79EFBEE
:102D6000854DC5E9020100F08FFADDE910431F46E9
:102D70002246FDF7B2FA5A46239BFDF7ABFA064608
:102D80008846D5E90201FFF7F7FE22463B46FDF7EC
:102D9000A4FA4A465346FDF7F9F932464346FDF791
:102DA0000EFB744B00225B42FFF726FEC5E90401CF
:102DB000DAE0012230463946FDF770FBCDE9020129
:102DC000022230463946FDF769FB4246019BFDF77A
:102DD00084FACDE9180122462B4610461946FDF724
:102DE0007CFADDE91823FDF772FA00F09DFA22461D
:102DF0002B46FDF76CFADDE90223FDF7E0FACDE999
:102E00000801012230463946FDF748FB0391169030
:102E1000022230463946FDF741FB4246019BFDF751
:102E20005CFA07460E4622462B4610461946FDF729
:102E300054FA3A463346FDF74AFA00F075FA02466C
:102E4000204685F000440B462146FDF740FA039BDF
:102E5000169AFDF7B4FA0024CDE90A0108A800EBA0
:102E6000C401444BD1E9000100225B42FFF7C4FDDD
:102E70000122FDF713FB1AAA02EBC407C7E9000100
:102E800000F002FADDE910531E462A46FDF725FA46
:102E90005A46239BFDF71EFA80460591D7E90001AB
:102EA000FFF76AFE33462A46FDF717FA4A465346AD
:102EB000FDF76CF94246059BFDF781FA2D4B002288
:102EC0005B42FFF799FD12AD05EBC402641CC2E939
:102ED0000001022CC2DBDFF8A4A0294FDFF8A49088
:102EE00000240DF1680800BF08EBC4063A46D6E995
:102EF00000015346FDF732FB21D8D6E900013A46DE
:102F00004B46FDF713FB1AD805EBC4018B4603C9EA
:102F100000221346FDF722FB11D8DBE900013A46F7
:102F20004B46FDF703FB0AD81348D6E90012C0E967
:102F30000212DBE90012C0E9041201201F90641C98
:102F4000022CD1DB1F9878B90B4D012405F52876AA
:102F5000214656F8240000F04DF905EBC402641C2C
:102F6000C2E90001032CF3DB26B00348BDE8F09F63
:102F700090330008000010C0E8000020FB21F9BFDA
:102F80004AD8124DFB21F93FFDF78EFDFEF712FEE8
:102F9000FEF732FDFEF768FDFEF7CEFDFEF7E8FD19
:102FA000FEF796FD012210491048FEF72BFC012286
:102FB0000F491048FEF726FC0F48FEF729F90F4885
:102FC000FEF726F90E4C0FA02168FEF7EFFF0DA0CB
:102FD0006168FEF7EBFF0CA0A168FEF7E7FFC820D1
:102FE000FDF74CFCEFE7000002000020000300208A
:102FF0000300002044030020440000208C00002037
:1030000088030020256420002564200D0A000000AC
:103010002DE9F84F04460078574E4FF6FF7806F535
:103020002C79112807D012282DD013287DD05428B0
:103030007CD052A09AE055A0FEF7B8FF00254F467D
:1030400004EB45004178807801B14042FDF73DFA3C
:103050002A46FFF7DFFD46F82500014657F8250010
:103060002A4600F0F1F801460090434605224E48FA
:10307000FEF766FC4C48FEF71CFA2128FAD06D1CBE
:10308000032DDDDB74E049A0FEF790FF6078002897
:10309000A07800D04042FDF718FA0546E0780F46C8
:1030A0000028207900D04042FDF70FFA02460B4677
:1030B00028463946FFF7DAFD054660790028A079F1
:1030C00000D04042FDF701FADFF8FCA03F4B52462A
:1030D000FDF703F9DFF8F8B000225B46FDF76FF962
:1030E0004F46C146DFF8E4800024C5E9000100BF77
:1030F00005EBC4010022D1E900015B46FDF7EDF8C4
:1031000052464346FDF75BF92246FFF783FD46F83A
:103110002400014657F82400224600F095F80146A5
:1031200000904B460522204801E00BE01DE0FEF731
:1031300007FC1D48FEF7BDF92128FAD0641C032CBA
:10314000D6DB15E023A0FEF731FF204600F06AF839
:1031500001460090434605221348FEF7F1FB124852
:10316000FEF7A7F92128FAD002E01DA0FEF71EFF06
:103170000098BDE8F88F0000D80000206572726FDB
:1031800072206D6F64652E0D0A000000666F727705
:10319000617264206B696E656D6174696373206D23
:1031A0006F64652E0D0A000044030020696E766589
:1031B000727365206B696E656D6174696373206DF0
:1031C0006F64652E0D0A00004AD8124DFB2109409C
:1031D000008066406A6F67206D6F64652E0D0A007F
:1031E000447261672D7465616368206D6F64652E3C
:1031F0000D0A0000084A10B552F82120801A064A2C
:103200000C3252F821104843FDF75FF9BDE8104039
:10321000024A034BFDF7D3B878330008135CA7B418
:10322000BBD4BF4042780749E0320A70FD224A70A1
:10323000807800B1802088700120C87080200871DB
:10324000004870471900002010B50E4CE0320B1AF0
:103250002270FD226270DA43D20FD201081A404276
:10326000A270002B01DB194600E001464FEAE17233
:1032700001EB12614FEA1121E17000DB1846207169
:10328000004810BD1400002000B5254B21F000427D
:1032900087B09A4203DC0022134600922BE0214BB8
:1032A0009A4208D140B94FF00100FFF7E5F9FFF766
:1032B000C4F907B000BD03DBFFF7BAF907B000BDE2
:1032C00002AAFEF7A7FE10F003014FF001000DD097
:1032D000012914D002291AD00DF1080C9CE80F0026
:1032E000FFF75CF807B081F0004100BD0DF1080C5C
:1032F00000909CE80F00FFF725F907B000BD0DF125
:10330000080C9CE80F00FFF749F807B000BD0DF16D
:10331000080C00909CE80F00FFF714F9E2E70000AA
:10332000FB21E93F0000F07F2DE9F04106460F4602
:10333000FDF7C0F904000D4618BF0120284320F016
:103340000040C0F17F6000F1E040C00F0ED0301CA3
:1033500018BF0120384320F00040C0F17F6000F129
:10336000E040C00F04BF0120FFF786F92046294640
:10337000BDE8F081000000002FA500001AD1000078
:10338000C269000001000000FFFFFFFF0100000014
:1033900000000000000049400000000000406040C4
:1033A0000000000000006540000000000000000078
:1033B00001020304060708090000000001020304DB
:1033C0004FBB610567ACDD3F182D4454FB21E93F3D
:1033D0009BF681D20B73EF3F182D4454FB21F93F2C
:1033E000E2652F227F2B7A3C075C143326A6813CB2
:1033F000BDCBF07A8807703C075C143326A6913C5D
:10340000C4EB98999999C9BF711623FEC671BCBFC8
:103410006D9A74AFF2B0B3BF9AFDDE522DDEADBF30
:103420002F6C6A2C44B4A2BF0D5555555555D53F48
:10343000FF8300922449C23F6E204CC5CD45B73F63
:10344000513DD0A0660DB13FEB0D76244B7BA93FDB
:1034500011DA22E33AAD903F4C5555555555A53FED
:103460007751C1166CC156BF9015CB19A001FA3E19
:10347000AD529C804F7E92BEC4B1B4BD9EEE213E43
:10348000D43888BEE9FAA8BD0000000000000000A2
:1034900000004054FB21F93F3163621A61B4D03D12
:1034A0000000601A61B4D03D7370032E8A19A33BEB
:1034B0000000002E8A19A33BC14920259A837B393D
:1034C00000000000000000006E83F9A22915444EA0
:1034D000D15727FCC0DD34F5999562DB4190433C20
:1034E000AB6351FE61C5BBDE3A6E24B7E0D24D42FC
:1034F000EA2E49061C92D1091CEB1DFE3EA729B1FC
:10350000F53582E88444BB2E26709CE9417E5FB489
:1035100039D69139F43953838B5F849C3B28F9BDAC
:10352000FF97F81F0F9805DE8B112FEF1F6D0A5ABA
:10353000CF7E366DB709CB27663F464F2DEA5F9E9B
:10354000C7BA27757BF1E5EBF739073DEA92528A56
:10355000B15FFB6B085D8D1FA6F810111111813F43
:10356000D561C119A0012ABF7DFEB157E31DC73E39
:10357000EB9C2B8AE6E55ABE7CD5CF5A3AD9E53D7D
:10358000A035000800000020440000005826000874
:10359000E4350008440000205407000068260008B5
:1035A0000000000000000000000000000300000018
:1035B000000000000000000000000000000000000B
:1035C00000000000010000000000000001000000F9
:1035D00010000000000000000024F40000000000C3
:0435E00000000000E7
:04000005080000ED02
:00000001FF
